:0100000000FF
:0100010000FE
:0100020000FD
:0100030000FC
:0100040000FB
:0100050000FA
:0100060000F9
:0100070000F8
:0100080000F7
:0100090000F6
:01000A0000F5
:01000B0000F4
:01000C0000F3
:01000D0000F2
:01000E0000F1
:01000F0000F0
:0100100000EF
:0100110000EE
:0100120000ED
:0100130000EC
:0100140000EB
:0100150000EA
:0100160000E9
:0100170000E8
:0100180000E7
:0100190000E6
:01001A0000E5
:01001B0000E4
:01001C0000E3
:01001D0000E2
:01001E0000E1
:01001F0000E0
:0100200000DF
:0100210000DE
:0100220000DD
:0100230001DB
:0100240001DA
:0100250001D9
:0100260001D8
:0100270001D7
:0100280001D6
:0100290001D5
:01002A0001D4
:01002B0001D3
:01002C0001D2
:01002D0000D2
:01002E0000D1
:01002F0000D0
:0100300000CF
:0100310000CE
:0100320001CC
:0100330001CB
:0100340000CB
:0100350000CA
:0100360000C9
:0100370000C8
:0100380000C7
:0100390000C6
:01003A0000C5
:01003B0000C4
:01003C0001C2
:01003D0001C1
:01003E0000C1
:01003F0000C0
:0100400000BF
:0100410000BE
:0100420001BC
:0100430001BB
:0100440000BB
:0100450000BA
:0100460000B9
:0100470000B8
:0100480000B7
:0100490000B6
:01004A0000B5
:01004B0000B4
:01004C0001B2
:01004D0001B1
:01004E0000B1
:01004F0000B0
:0100500000AF
:0100510000AE
:0100520001AC
:0100530001AB
:0100540000AB
:0100550000AA
:0100560000A9
:0100570000A8
:0100580000A7
:0100590000A6
:01005A0000A5
:01005B0000A4
:01005C0001A2
:01005D0001A1
:01005E0000A1
:01005F0000A0
:01006000009F
:01006100009E
:01006200019C
:01006300019B
:01006400009B
:01006500009A
:010066000099
:010067000098
:010068000097
:010069000096
:01006A000095
:01006B000094
:01006C000192
:01006D000191
:01006E000091
:01006F000090
:01007000008F
:01007100008E
:01007200018C
:01007300018B
:01007400008B
:01007500008A
:010076000089
:010077000088
:010078000087
:010079000086
:01007A000085
:01007B000084
:01007C000182
:01007D000181
:01007E000081
:01007F000080
:01008000007F
:01008100007E
:01008200017C
:01008300017B
:01008400007B
:01008500007A
:010086000079
:010087000078
:010088000077
:010089000076
:01008A000075
:01008B000074
:01008C000172
:01008D000171
:01008E000071
:01008F000070
:01009000006F
:01009100006E
:01009200016C
:01009300016B
:01009400006B
:01009500006A
:010096000069
:010097000068
:010098000067
:010099000066
:01009A000065
:01009B000064
:01009C000162
:01009D000161
:01009E000061
:01009F000060
:0100A000005F
:0100A100005E
:0100A200015C
:0100A300015B
:0100A400005B
:0100A500005A
:0100A6000059
:0100A7000058
:0100A8000057
:0100A9000056
:0100AA000055
:0100AB000153
:0100AC000152
:0100AD000151
:0100AE000051
:0100AF000050
:0100B000004F
:0100B100004E
:0100B200014C
:0100B300014B
:0100B400004B
:0100B500004A
:0100B6000049
:0100B7000048
:0100B8000047
:0100B9000046
:0100BA000144
:0100BB000143
:0100BC000142
:0100BD000141
:0100BE000041
:0100BF000040
:0100C000003F
:0100C100003E
:0100C200013C
:0100C300013B
:0100C400003B
:0100C500003A
:0100C6000039
:0100C7000038
:0100C8000037
:0100C9000135
:0100CA000134
:0100CB000034
:0100CC000132
:0100CD000131
:0100CE000031
:0100CF000030
:0100D000002F
:0100D100002E
:0100D200012C
:0100D300012B
:0100D400002B
:0100D500002A
:0100D6000029
:0100D7000028
:0100D8000126
:0100D9000125
:0100DA000025
:0100DB000024
:0100DC000122
:0100DD000121
:0100DE000021
:0100DF000020
:0100E000001F
:0100E100001E
:0100E200011C
:0100E300011B
:0100E400001B
:0100E500001A
:0100E6000019
:0100E7000117
:0100E8000116
:0100E9000016
:0100EA000015
:0100EB000014
:0100EC000112
:0100ED000111
:0100EE000011
:0100EF000010
:0100F000000F
:0100F100000E
:0100F200010C
:0100F300010B
:0100F400000B
:0100F500000A
:0100F6000108
:0100F7000107
:0100F8000007
:0100F9000006
:0100FA000005
:0100FB000004
:0100FC000102
:0100FD000101
:0100FE000001
:0100FF000000
:0101000000FE
:0101010000FD
:0101020001FB
:0101030001FA
:0101040000FA
:0101050001F8
:0101060001F7
:0101070000F7
:0101080000F6
:0101090000F5
:01010A0000F4
:01010B0000F3
:01010C0001F1
:01010D0001F0
:01010E0000F0
:01010F0000EF
:0101100000EE
:0101110000ED
:0101120001EB
:0101130001EA
:0101140001E9
:0101150001E8
:0101160000E8
:0101170000E7
:0101180000E6
:0101190000E5
:01011A0000E4
:01011B0000E3
:01011C0001E1
:01011D0001E0
:01011E0000E0
:01011F0000DF
:0101200000DE
:0101210000DD
:0101220001DB
:0101230001DA
:0101240001D9
:0101250000D9
:0101260000D8
:0101270000D7
:0101280000D6
:0101290000D5
:01012A0000D4
:01012B0000D3
:01012C0001D1
:01012D0001D0
:01012E0000D0
:01012F0000CF
:0101300000CE
:0101310000CD
:0101320001CB
:0101330001CA
:0101340000CA
:0101350000C9
:0101360000C8
:0101370000C7
:0101380000C6
:0101390000C5
:01013A0000C4
:01013B0000C3
:01013C0001C1
:01013D0001C0
:01013E0000C0
:01013F0000BF
:0101400000BE
:0101410000BD
:0101420001BB
:0101430001BA
:0101440000BA
:0101450000B9
:0101460000B8
:0101470000B7
:0101480000B6
:0101490000B5
:01014A0000B4
:01014B0000B3
:01014C0001B1
:01014D0001B0
:01014E0000B0
:01014F0000AF
:0101500000AE
:0101510000AD
:0101520001AB
:0101530001AA
:0101540000AA
:0101550000A9
:0101560000A8
:0101570000A7
:0101580000A6
:0101590000A5
:01015A0000A4
:01015B0000A3
:01015C0001A1
:01015D0001A0
:01015E0000A0
:01015F00009F
:01016000009E
:01016100009D
:01016200019B
:01016300019A
:01016400009A
:010165000099
:010166000098
:010167000097
:010168000096
:010169000095
:01016A000094
:01016B000093
:01016C000191
:01016D000190
:01016E000090
:01016F00008F
:01017000008E
:01017100008D
:01017200018B
:01017300018A
:01017400008A
:010175000089
:010176000088
:010177000087
:010178000086
:010179000085
:01017A000084
:01017B000083
:01017C000181
:01017D000180
:01017E000080
:01017F00007F
:01018000007E
:01018100007D
:01018200017B
:01018300017A
:01018400007A
:010185000079
:010186000078
:010187000077
:010188000076
:010189000075
:01018A000074
:01018B000073
:01018C000171
:01018D000170
:01018E000070
:01018F00006F
:01019000006E
:01019100006D
:01019200016B
:01019300016A
:01019400006A
:010195000069
:010196000068
:010197000067
:010198000066
:010199000065
:01019A000064
:01019B000063
:01019C000161
:01019D000160
:01019E000060
:01019F00005F
:0101A000005E
:0101A100005D
:0101A200015B
:0101A300015A
:0101A400005A
:0101A5000059
:0101A6000058
:0101A7000057
:0101A8000056
:0101A9000055
:0101AA000054
:0101AB000053
:0101AC000151
:0101AD000150
:0101AE000050
:0101AF00004F
:0101B000004E
:0101B100004D
:0101B200014B
:0101B300014A
:0101B400004A
:0101B5000049
:0101B6000048
:0101B7000047
:0101B8000046
:0101B9000045
:0101BA000044
:0101BB000043
:0101BC000141
:0101BD000140
:0101BE000040
:0101BF00003F
:0101C000003E
:0101C100003D
:0101C200013B
:0101C300013A
:0101C4000139
:0101C5000138
:0101C6000137
:0101C7000136
:0101C8000135
:0101C9000134
:0101CA000133
:0101CB000132
:0101CC000131
:0101CD000130
:0101CE000030
:0101CF00002F
:0101D000002E
:0101D100002D
:0101D200002C
:0101D300012A
:0101D4000129
:0101D5000128
:0101D6000127
:0101D7000126
:0101D8000125
:0101D9000124
:0101DA000123
:0101DB000122
:0101DC000121
:0101DD000021
:0101DE000020
:0101DF00001F
:0101E000001E
:0101E100001D
:0101E200001C
:0101E300001B
:0101E400001A
:0101E5000019
:0101E6000018
:0101E7000017
:0101E8000016
:0101E9000015
:0101EA000014
:0101EB000013
:0101EC000012
:0101ED000011
:0101EE000010
:0101EF00000F
:0101F000000E
:0101F100000D
:0101F200000C
:0101F300000B
:0101F400000A
:0101F5000009
:0101F6000008
:0101F7000007
:0101F8000006
:0101F9000005
:0101FA000004
:0101FB000003
:0101FC000002
:0101FD000001
:0101FE000000
:0101FF0000FF
:0102000000FD
:0102010000FC
:0102020000FB
:0102030000FA
:0102040000F9
:0102050000F8
:0102060000F7
:0102070000F6
:0102080000F5
:0102090000F4
:01020A0000F3
:01020B0000F2
:01020C0000F1
:01020D0000F0
:01020E0000EF
:01020F0000EE
:0102100000ED
:0102110000EC
:0102120000EB
:0102130000EA
:0102140000E9
:0102150000E8
:0102160000E7
:0102170000E6
:0102180000E5
:0102190000E4
:01021A0000E3
:01021B0000E2
:01021C0000E1
:01021D0000E0
:01021E0000DF
:01021F0000DE
:0102200000DD
:0102210000DC
:0102220000DB
:0102230000DA
:0102240000D9
:0102250000D8
:0102260001D6
:0102270001D5
:0102280001D4
:0102290001D3
:01022A0000D3
:01022B0000D2
:01022C0000D1
:01022D0000D0
:01022E0000CF
:01022F0000CE
:0102300000CD
:0102310000CC
:0102320000CB
:0102330000CA
:0102340001C8
:0102350001C7
:0102360001C6
:0102370001C5
:0102380001C4
:0102390001C3
:01023A0000C3
:01023B0000C2
:01023C0000C1
:01023D0000C0
:01023E0000BF
:01023F0000BE
:0102400000BD
:0102410000BC
:0102420000BB
:0102430001B9
:0102440001B8
:0102450001B7
:0102460001B6
:0102470001B5
:0102480001B4
:0102490001B3
:01024A0000B3
:01024B0000B2
:01024C0000B1
:01024D0000B0
:01024E0000AF
:01024F0000AE
:0102500000AD
:0102510000AC
:0102520000AB
:0102530001A9
:0102540001A8
:0102550001A7
:0102560001A6
:0102570001A5
:0102580001A4
:0102590001A3
:01025A0000A3
:01025B0000A2
:01025C0000A1
:01025D0000A0
:01025E00009F
:01025F00009E
:01026000009D
:01026100009C
:01026200009B
:01026300009A
:010264000099
:010265000098
:010266000196
:010267000195
:010268000194
:010269000193
:01026A000093
:01026B000092
:01026C000091
:01026D000090
:01026E00008F
:01026F00008E
:01027000008D
:01027100008C
:01027200008B
:01027300008A
:010274000089
:010275000088
:010276000186
:010277000185
:010278000184
:010279000183
:01027A000083
:01027B000082
:01027C000081
:01027D000080
:01027E00007F
:01027F00007E
:01028000007D
:01028100007C
:01028200007B
:01028300007A
:010284000079
:010285000078
:010286000176
:010287000175
:010288000174
:010289000173
:01028A000073
:01028B000072
:01028C000071
:01028D000070
:01028E00006F
:01028F00006E
:01029000006D
:01029100006C
:01029200006B
:01029300006A
:010294000069
:010295000068
:010296000166
:010297000165
:010298000164
:010299000163
:01029A000063
:01029B000062
:01029C000061
:01029D000060
:01029E00005F
:01029F00005E
:0102A000005D
:0102A100005C
:0102A200005B
:0102A300005A
:0102A4000059
:0102A5000058
:0102A6000156
:0102A7000155
:0102A8000154
:0102A9000153
:0102AA000053
:0102AB000052
:0102AC000051
:0102AD000050
:0102AE00004F
:0102AF00004E
:0102B000004D
:0102B100004C
:0102B200004B
:0102B300004A
:0102B4000049
:0102B5000048
:0102B6000146
:0102B7000145
:0102B8000144
:0102B9000143
:0102BA000043
:0102BB000042
:0102BC000041
:0102BD000040
:0102BE00003F
:0102BF00003E
:0102C000003D
:0102C100003C
:0102C200003B
:0102C300003A
:0102C4000039
:0102C5000038
:0102C6000136
:0102C7000135
:0102C8000134
:0102C9000133
:0102CA000033
:0102CB000032
:0102CC000031
:0102CD000030
:0102CE00002F
:0102CF00002E
:0102D000002D
:0102D100002C
:0102D200002B
:0102D300002A
:0102D4000029
:0102D5000028
:0102D6000126
:0102D7000125
:0102D8000124
:0102D9000123
:0102DA000023
:0102DB000022
:0102DC000021
:0102DD000020
:0102DE00001F
:0102DF00001E
:0102E000001D
:0102E100001C
:0102E200001B
:0102E300001A
:0102E4000019
:0102E5000018
:0102E6000116
:0102E7000115
:0102E8000114
:0102E9000113
:0102EA000013
:0102EB000012
:0102EC000011
:0102ED000010
:0102EE00000F
:0102EF00000E
:0102F000000D
:0102F100000C
:0102F200000B
:0102F300000A
:0102F4000009
:0102F5000008
:0102F6000106
:0102F7000105
:0102F8000104
:0102F9000103
:0102FA000003
:0102FB000002
:0102FC000001
:0102FD000000
:0102FE0000FF
:0102FF0000FE
:0103000000FC
:0103010000FB
:0103020000FA
:0103030000F9
:0103040000F8
:0103050000F7
:0103060001F5
:0103070001F4
:0103080001F3
:0103090001F2
:01030A0000F2
:01030B0000F1
:01030C0000F0
:01030D0000EF
:01030E0000EE
:01030F0000ED
:0103100000EC
:0103110000EB
:0103120000EA
:0103130000E9
:0103140000E8
:0103150000E7
:0103160001E5
:0103170001E4
:0103180001E3
:0103190001E2
:01031A0000E2
:01031B0000E1
:01031C0000E0
:01031D0000DF
:01031E0000DE
:01031F0000DD
:0103200000DC
:0103210000DB
:0103220000DA
:0103230000D9
:0103240000D8
:0103250000D7
:0103260001D5
:0103270001D4
:0103280001D3
:0103290001D2
:01032A0000D2
:01032B0000D1
:01032C0000D0
:01032D0000CF
:01032E0000CE
:01032F0000CD
:0103300000CC
:0103310000CB
:0103320000CA
:0103330000C9
:0103340000C8
:0103350000C7
:0103360001C5
:0103370001C4
:0103380001C3
:0103390001C2
:01033A0000C2
:01033B0000C1
:01033C0000C0
:01033D0000BF
:01033E0000BE
:01033F0000BD
:0103400000BC
:0103410000BB
:0103420000BA
:0103430000B9
:0103440000B8
:0103450000B7
:0103460001B5
:0103470001B4
:0103480001B3
:0103490001B2
:01034A0000B2
:01034B0000B1
:01034C0000B0
:01034D0000AF
:01034E0000AE
:01034F0000AD
:0103500000AC
:0103510000AB
:0103520000AA
:0103530000A9
:0103540000A8
:0103550000A7
:0103560001A5
:0103570001A4
:0103580001A3
:0103590001A2
:01035A0000A2
:01035B0000A1
:01035C0000A0
:01035D00009F
:01035E00009E
:01035F00009D
:01036000009C
:01036100009B
:01036200009A
:010363000099
:010364000098
:010365000097
:010366000195
:010367000194
:010368000193
:010369000192
:01036A000092
:01036B000091
:01036C000090
:01036D00008F
:01036E00008E
:01036F00008D
:01037000008C
:01037100008B
:01037200008A
:010373000089
:010374000088
:010375000087
:010376000185
:010377000184
:010378000183
:010379000182
:01037A000082
:01037B000081
:01037C000080
:01037D00007F
:01037E00007E
:01037F00007D
:01038000007C
:01038100007B
:01038200007A
:010383000079
:010384000078
:010385000077
:010386000175
:010387000174
:010388000173
:010389000172
:01038A000072
:01038B000071
:01038C000070
:01038D00006F
:01038E00006E
:01038F00006D
:01039000006C
:01039100006B
:01039200006A
:010393000069
:010394000068
:010395000067
:010396000165
:010397000164
:010398000163
:010399000162
:01039A000062
:01039B000061
:01039C000060
:01039D00005F
:01039E00005E
:01039F00005D
:0103A000005C
:0103A100005B
:0103A200005A
:0103A3000059
:0103A4000058
:0103A5000057
:0103A6000155
:0103A7000154
:0103A8000153
:0103A9000152
:0103AA000052
:0103AB000051
:0103AC000050
:0103AD00004F
:0103AE00004E
:0103AF00004D
:0103B000004C
:0103B100004B
:0103B200004A
:0103B3000148
:0103B4000147
:0103B5000146
:0103B6000145
:0103B7000144
:0103B8000143
:0103B9000142
:0103BA000141
:0103BB000140
:0103BC00013F
:0103BD00003F
:0103BE00003E
:0103BF00003D
:0103C000003C
:0103C100003B
:0103C200003A
:0103C3000138
:0103C4000137
:0103C5000136
:0103C6000135
:0103C7000134
:0103C8000133
:0103C9000132
:0103CA000131
:0103CB000130
:0103CC00012F
:0103CD00002F
:0103CE00002E
:0103CF00002D
:0103D000002C
:0103D100002B
:0103D200002A
:0103D3000029
:0103D4000028
:0103D5000027
:0103D6000026
:0103D7000025
:0103D8000024
:0103D9000023
:0103DA000022
:0103DB000021
:0103DC000020
:0103DD00001F
:0103DE00001E
:0103DF00001D
:0103E000001C
:0103E100001B
:0103E200001A
:0103E3000019
:0103E4000018
:0103E5000017
:0103E6000016
:0103E7000015
:0103E8000014
:0103E9000013
:0103EA000012
:0103EB000011
:0103EC000010
:0103ED00000F
:0103EE00000E
:0103EF00000D
:0103F000000C
:0103F100000B
:0103F200000A
:0103F3000009
:0103F4000008
:0103F5000007
:0103F6000006
:0103F7000005
:0103F8000004
:0103F9000003
:0103FA000002
:0103FB000001
:0103FC000000
:0103FD0000FF
:0103FE0000FE
:0103FF0000FD
:0104000000FB
:0104010000FA
:0104020000F9
:0104030000F8
:0104040000F7
:0104050000F6
:0104060000F5
:0104070000F4
:0104080000F3
:0104090000F2
:01040A0000F1
:01040B0000F0
:01040C0000EF
:01040D0000EE
:01040E0000ED
:01040F0000EC
:0104100000EB
:0104110000EA
:0104120000E9
:0104130000E8
:0104140000E7
:0104150000E6
:0104160000E5
:0104170000E4
:0104180000E3
:0104190000E2
:01041A0000E1
:01041B0000E0
:01041C0000DF
:01041D0000DE
:01041E0000DD
:01041F0000DC
:0104200000DB
:0104210000DA
:0104220000D9
:0104230000D8
:0104240001D6
:0104250001D5
:0104260001D4
:0104270001D3
:0104280001D2
:0104290001D1
:01042A0001D0
:01042B0001CF
:01042C0000CF
:01042D0000CE
:01042E0000CD
:01042F0000CC
:0104300000CB
:0104310000CA
:0104320001C8
:0104330001C7
:0104340001C6
:0104350001C5
:0104360001C4
:0104370001C3
:0104380001C2
:0104390001C1
:01043A0001C0
:01043B0001BF
:01043C0001BE
:01043D0001BD
:01043E0000BD
:01043F0000BC
:0104400000BB
:0104410000BA
:0104420001B8
:0104430001B7
:0104440001B6
:0104450001B5
:0104460001B4
:0104470001B3
:0104480001B2
:0104490001B1
:01044A0001B0
:01044B0001AF
:01044C0001AE
:01044D0001AD
:01044E0000AD
:01044F0000AC
:0104500000AB
:0104510000AA
:0104520001A8
:0104530001A7
:0104540001A6
:0104550000A6
:0104560000A5
:0104570000A4
:0104580000A3
:0104590000A2
:01045A0000A1
:01045B0000A0
:01045C00019E
:01045D00019D
:01045E00009D
:01045F00009C
:01046000009B
:01046100009A
:010462000198
:010463000197
:010464000097
:010465000096
:010466000095
:010467000094
:010468000093
:010469000092
:01046A000091
:01046B00018F
:01046C00018E
:01046D00018D
:01046E00008D
:01046F00008C
:01047000008B
:01047100008A
:010472000188
:010473000187
:010474000087
:010475000086
:010476000085
:010477000084
:010478000083
:010479000082
:01047A000081
:01047B00017F
:01047C00017E
:01047D00017D
:01047E00007D
:01047F00007C
:01048000007B
:01048100007A
:010482000079
:010483000078
:010484000077
:010485000076
:010486000075
:010487000074
:010488000073
:010489000171
:01048A000170
:01048B00016F
:01048C00006F
:01048D00006E
:01048E00006D
:01048F00006C
:01049000006B
:01049100006A
:010492000069
:010493000068
:010494000067
:010495000066
:010496000065
:010497000064
:010498000063
:010499000161
:01049A000160
:01049B00015F
:01049C00005F
:01049D00005E
:01049E00005D
:01049F00005C
:0104A000005B
:0104A100005A
:0104A2000059
:0104A3000058
:0104A4000057
:0104A5000056
:0104A6000055
:0104A7000054
:0104A8000152
:0104A9000151
:0104AA000150
:0104AB000050
:0104AC00004F
:0104AD00004E
:0104AE00004D
:0104AF00004C
:0104B000004B
:0104B100004A
:0104B2000049
:0104B3000048
:0104B4000047
:0104B5000046
:0104B6000045
:0104B7000044
:0104B8000142
:0104B9000141
:0104BA000140
:0104BB000040
:0104BC00003F
:0104BD00003E
:0104BE00003D
:0104BF00003C
:0104C000003B
:0104C100003A
:0104C2000039
:0104C3000038
:0104C4000037
:0104C5000036
:0104C6000035
:0104C7000133
:0104C8000132
:0104C9000131
:0104CA000031
:0104CB000030
:0104CC00002F
:0104CD00002E
:0104CE00002D
:0104CF00002C
:0104D000002B
:0104D100002A
:0104D2000029
:0104D3000028
:0104D4000027
:0104D5000026
:0104D6000025
:0104D7000123
:0104D8000122
:0104D9000121
:0104DA000021
:0104DB000020
:0104DC00001F
:0104DD00001E
:0104DE00001D
:0104DF00001C
:0104E000001B
:0104E100001A
:0104E2000019
:0104E3000018
:0104E4000017
:0104E5000016
:0104E6000114
:0104E7000113
:0104E8000112
:0104E9000012
:0104EA000011
:0104EB000010
:0104EC00000F
:0104ED00000E
:0104EE00000D
:0104EF00000C
:0104F000000B
:0104F100000A
:0104F2000009
:0104F3000008
:0104F4000007
:0104F5000006
:0104F6000104
:0104F7000103
:0104F8000102
:0104F9000002
:0104FA000001
:0104FB000000
:0104FC0000FF
:0104FD0000FE
:0104FE0000FD
:0104FF0000FC
:0105000000FA
:0105010000F9
:0105020000F8
:0105030000F7
:0105040000F6
:0105050001F4
:0105060001F3
:0105070001F2
:0105080000F2
:0105090000F1
:01050A0000F0
:01050B0000EF
:01050C0000EE
:01050D0000ED
:01050E0000EC
:01050F0000EB
:0105100000EA
:0105110000E9
:0105120000E8
:0105130000E7
:0105140000E6
:0105150001E4
:0105160001E3
:0105170001E2
:0105180000E2
:0105190000E1
:01051A0000E0
:01051B0000DF
:01051C0000DE
:01051D0000DD
:01051E0000DC
:01051F0000DB
:0105200000DA
:0105210000D9
:0105220000D8
:0105230000D7
:0105240001D5
:0105250001D4
:0105260001D3
:0105270000D3
:0105280000D2
:0105290000D1
:01052A0000D0
:01052B0000CF
:01052C0000CE
:01052D0000CD
:01052E0000CC
:01052F0000CB
:0105300000CA
:0105310000C9
:0105320000C8
:0105330000C7
:0105340001C5
:0105350001C4
:0105360001C3
:0105370000C3
:0105380000C2
:0105390000C1
:01053A0000C0
:01053B0000BF
:01053C0000BE
:01053D0000BD
:01053E0000BC
:01053F0000BB
:0105400000BA
:0105410000B9
:0105420000B8
:0105430001B6
:0105440001B5
:0105450001B4
:0105460000B4
:0105470000B3
:0105480000B2
:0105490000B1
:01054A0000B0
:01054B0000AF
:01054C0000AE
:01054D0000AD
:01054E0000AC
:01054F0000AB
:0105500000AA
:0105510000A9
:0105520000A8
:0105530001A6
:0105540001A5
:0105550001A4
:0105560000A4
:0105570000A3
:0105580000A2
:0105590000A1
:01055A0000A0
:01055B00009F
:01055C00009E
:01055D00009D
:01055E00009C
:01055F00009B
:01056000009A
:010561000099
:010562000098
:010563000196
:010564000195
:010565000194
:010566000094
:010567000093
:010568000092
:010569000091
:01056A000090
:01056B00008F
:01056C00008E
:01056D00008D
:01056E00008C
:01056F00008B
:01057000008A
:010571000089
:010572000088
:010573000186
:010574000185
:010575000184
:010576000084
:010577000083
:010578000082
:010579000081
:01057A000080
:01057B00007F
:01057C00007E
:01057D00007D
:01057E00007C
:01057F00007B
:01058000007A
:010581000079
:010582000177
:010583000176
:010584000175
:010585000075
:010586000074
:010587000073
:010588000072
:010589000071
:01058A000070
:01058B00006F
:01058C00006E
:01058D00006D
:01058E00006C
:01058F00006B
:01059000006A
:010591000069
:010592000167
:010593000166
:010594000165
:010595000065
:010596000064
:010597000063
:010598000062
:010599000061
:01059A000060
:01059B00005F
:01059C00005E
:01059D00005D
:01059E00005C
:01059F00005B
:0105A000005A
:0105A1000059
:0105A2000157
:0105A3000156
:0105A4000155
:0105A5000055
:0105A6000054
:0105A7000053
:0105A8000052
:0105A9000051
:0105AA000050
:0105AB00004F
:0105AC00004E
:0105AD00004D
:0105AE00004C
:0105AF00004B
:0105B000004A
:0105B1000049
:0105B2000147
:0105B3000146
:0105B4000145
:0105B5000144
:0105B6000143
:0105B7000142
:0105B8000141
:0105B9000140
:0105BA00013F
:0105BB00013E
:0105BC00013D
:0105BD00013C
:0105BE00003C
:0105BF00003B
:0105C000003A
:0105C1000039
:0105C2000137
:0105C3000136
:0105C4000135
:0105C5000134
:0105C6000133
:0105C7000132
:0105C8000131
:0105C9000130
:0105CA00012F
:0105CB00012E
:0105CC00012D
:0105CD00012C
:0105CE00002C
:0105CF00002B
:0105D000002A
:0105D1000029
:0105D2000127
:0105D3000126
:0105D4000125
:0105D5000124
:0105D6000123
:0105D7000122
:0105D8000121
:0105D9000120
:0105DA00011F
:0105DB00011E
:0105DC00011D
:0105DD00011C
:0105DE00001C
:0105DF00001B
:0105E000001A
:0105E1000019
:0105E2000018
:0105E3000017
:0105E4000016
:0105E5000015
:0105E6000014
:0105E7000013
:0105E8000012
:0105E9000011
:0105EA000010
:0105EB00000F
:0105EC00000E
:0105ED00000D
:0105EE00000C
:0105EF00000B
:0105F000000A
:0105F1000009
:0105F2000008
:0105F3000007
:0105F4000006
:0105F5000005
:0105F6000004
:0105F7000003
:0105F8000002
:0105F9000001
:0105FA000000
:0105FB0000FF
:0105FC0000FE
:0105FD0000FD
:0105FE0000FC
:0105FF0000FB
:0106000000F9
:0106010000F8
:0106020000F7
:0106030000F6
:0106040000F5
:0106050000F4
:0106060000F3
:0106070000F2
:0106080000F1
:0106090000F0
:01060A0000EF
:01060B0000EE
:01060C0000ED
:01060D0000EC
:01060E0000EB
:01060F0000EA
:0106100000E9
:0106110000E8
:0106120000E7
:0106130000E6
:0106140000E5
:0106150000E4
:0106160000E3
:0106170000E2
:0106180000E1
:0106190000E0
:01061A0000DF
:01061B0000DE
:01061C0000DD
:01061D0000DC
:01061E0000DB
:01061F0000DA
:0106200000D9
:0106210000D8
:0106220000D7
:0106230000D6
:0106240001D4
:0106250001D3
:0106260001D2
:0106270001D1
:0106280001D0
:0106290001CF
:01062A0001CE
:01062B0001CD
:01062C0000CD
:01062D0000CC
:01062E0000CB
:01062F0000CA
:0106300000C9
:0106310000C8
:0106320000C7
:0106330001C5
:0106340001C4
:0106350001C3
:0106360001C2
:0106370001C1
:0106380001C0
:0106390001BF
:01063A0001BE
:01063B0001BD
:01063C0001BC
:01063D0000BC
:01063E0000BB
:01063F0000BA
:0106400000B9
:0106410000B8
:0106420001B6
:0106430001B5
:0106440001B4
:0106450001B3
:0106460001B2
:0106470001B1
:0106480001B0
:0106490001AF
:01064A0001AE
:01064B0001AD
:01064C0001AC
:01064D0001AB
:01064E0000AB
:01064F0000AA
:0106500000A9
:0106510000A8
:0106520001A6
:0106530001A5
:0106540001A4
:0106550000A4
:0106560000A3
:0106570000A2
:0106580000A1
:0106590000A0
:01065A00019E
:01065B00019D
:01065C00019C
:01065D00019B
:01065E00009B
:01065F00009A
:010660000099
:010661000098
:010662000196
:010663000195
:010664000095
:010665000094
:010666000093
:010667000092
:010668000091
:010669000090
:01066A00008F
:01066B00018D
:01066C00018C
:01066D00018B
:01066E00008B
:01066F00008A
:010670000089
:010671000088
:010672000186
:010673000185
:010674000085
:010675000084
:010676000083
:010677000082
:010678000081
:010679000080
:01067A00007F
:01067B00017D
:01067C00017C
:01067D00017B
:01067E00007B
:01067F00007A
:010680000079
:010681000078
:010682000077
:010683000175
:010684000174
:010685000074
:010686000073
:010687000072
:010688000071
:010689000070
:01068A00006F
:01068B00016D
:01068C00016C
:01068D00016B
:01068E00006B
:01068F00006A
:010690000069
:010691000068
:010692000067
:010693000165
:010694000164
:010695000064
:010696000063
:010697000062
:010698000061
:010699000060
:01069A00005F
:01069B00015D
:01069C00015C
:01069D00015B
:01069E00005B
:01069F00005A
:0106A0000059
:0106A1000058
:0106A2000057
:0106A3000056
:0106A4000055
:0106A5000054
:0106A6000053
:0106A7000052
:0106A8000051
:0106A9000050
:0106AA00004F
:0106AB00014D
:0106AC00014C
:0106AD00014B
:0106AE00004B
:0106AF00004A
:0106B0000049
:0106B1000048
:0106B2000047
:0106B3000046
:0106B4000045
:0106B5000044
:0106B6000043
:0106B7000042
:0106B8000041
:0106B9000040
:0106BA00003F
:0106BB00013D
:0106BC00013C
:0106BD00013B
:0106BE00003B
:0106BF00003A
:0106C0000039
:0106C1000038
:0106C2000037
:0106C3000036
:0106C4000035
:0106C5000034
:0106C6000033
:0106C7000032
:0106C8000031
:0106C9000030
:0106CA00002F
:0106CB00012D
:0106CC00012C
:0106CD00012B
:0106CE00002B
:0106CF00002A
:0106D0000029
:0106D1000028
:0106D2000027
:0106D3000026
:0106D4000025
:0106D5000024
:0106D6000023
:0106D7000022
:0106D8000021
:0106D9000020
:0106DA00001F
:0106DB00011D
:0106DC00011C
:0106DD00011B
:0106DE00001B
:0106DF00001A
:0106E0000019
:0106E1000018
:0106E2000017
:0106E3000016
:0106E4000015
:0106E5000014
:0106E6000112
:0106E7000111
:0106E8000110
:0106E900010F
:0106EA00010E
:0106EB00010D
:0106EC00010C
:0106ED00010B
:0106EE00000B
:0106EF00000A
:0106F0000009
:0106F1000008
:0106F2000007
:0106F3000006
:0106F4000005
:0106F5000103
:0106F6000102
:0106F7000101
:0106F8000100
:0106F90001FF
:0106FA0001FE
:0106FB0001FD
:0106FC0001FC
:0106FD0001FB
:0106FE0000FB
:0106FF0000FA
:0107000000F8
:0107010000F7
:0107020000F6
:0107030000F5
:0107040000F4
:0107050000F3
:0107060001F1
:0107070001F0
:0107080001EF
:0107090001EE
:01070A0001ED
:01070B0001EC
:01070C0001EB
:01070D0001EA
:01070E0000EA
:01070F0000E9
:0107100000E8
:0107110000E7
:0107120000E6
:0107130000E5
:0107140000E4
:0107150000E3
:0107160000E2
:0107170000E1
:0107180000E0
:0107190000DF
:01071A0000DE
:01071B0001DC
:01071C0001DB
:01071D0001DA
:01071E0000DA
:01071F0000D9
:0107200000D8
:0107210000D7
:0107220000D6
:0107230000D5
:0107240000D4
:0107250000D3
:0107260000D2
:0107270000D1
:0107280000D0
:0107290000CF
:01072A0000CE
:01072B0001CC
:01072C0001CB
:01072D0001CA
:01072E0000CA
:01072F0000C9
:0107300000C8
:0107310000C7
:0107320000C6
:0107330000C5
:0107340000C4
:0107350000C3
:0107360000C2
:0107370000C1
:0107380000C0
:0107390000BF
:01073A0000BE
:01073B0001BC
:01073C0001BB
:01073D0001BA
:01073E0000BA
:01073F0000B9
:0107400000B8
:0107410000B7
:0107420000B6
:0107430000B5
:0107440000B4
:0107450000B3
:0107460000B2
:0107470000B1
:0107480000B0
:0107490000AF
:01074A0000AE
:01074B0001AC
:01074C0001AB
:01074D0001AA
:01074E0000AA
:01074F0000A9
:0107500000A8
:0107510000A7
:0107520000A6
:0107530000A5
:0107540000A4
:0107550000A3
:0107560000A2
:0107570000A1
:0107580000A0
:01075900009F
:01075A00009E
:01075B00019C
:01075C00019B
:01075D00019A
:01075E00009A
:01075F000099
:010760000098
:010761000097
:010762000096
:010763000095
:010764000094
:010765000093
:010766000092
:010767000091
:010768000090
:01076900008F
:01076A00008E
:01076B00018C
:01076C00018B
:01076D00018A
:01076E00008A
:01076F000089
:010770000088
:010771000087
:010772000086
:010773000184
:010774000183
:010775000083
:010776000082
:010777000081
:010778000080
:01077900007F
:01077A00007E
:01077B00017C
:01077C00017B
:01077D00017A
:01077E00007A
:01077F000079
:010780000078
:010781000077
:010782000175
:010783000174
:010784000173
:010785000073
:010786000072
:010787000071
:010788000070
:01078900006F
:01078A00006E
:01078B00016C
:01078C00016B
:01078D00016A
:01078E00006A
:01078F000069
:010790000068
:010791000067
:010792000165
:010793000164
:010794000064
:010795000063
:010796000062
:010797000061
:010798000060
:01079900005F
:01079A00005E
:01079B00015C
:01079C00015B
:01079D00015A
:01079E00005A
:01079F000059
:0107A0000058
:0107A1000057
:0107A2000155
:0107A3000154
:0107A4000153
:0107A5000053
:0107A6000052
:0107A7000051
:0107A8000050
:0107A900004F
:0107AA00014D
:0107AB00014C
:0107AC00014B
:0107AD00014A
:0107AE00004A
:0107AF000049
:0107B0000048
:0107B1000047
:0107B2000145
:0107B3000144
:0107B4000143
:0107B5000142
:0107B6000141
:0107B7000140
:0107B800013F
:0107B900013E
:0107BA00013D
:0107BB00013C
:0107BC00013B
:0107BD00013A
:0107BE00003A
:0107BF000039
:0107C0000038
:0107C1000037
:0107C2000135
:0107C3000134
:0107C4000133
:0107C5000132
:0107C6000131
:0107C7000130
:0107C800012F
:0107C900012E
:0107CA00012D
:0107CB00012C
:0107CC00012B
:0107CD00002B
:0107CE00002A
:0107CF000029
:0107D0000028
:0107D1000027
:0107D2000026
:0107D3000025
:0107D4000123
:0107D5000122
:0107D6000121
:0107D7000120
:0107D800011F
:0107D900011E
:0107DA00011D
:0107DB00011C
:0107DC00001C
:0107DD00001B
:0107DE00001A
:0107DF000019
:0107E0000018
:0107E1000017
:0107E2000016
:0107E3000015
:0107E4000014
:0107E5000013
:0107E6000012
:0107E7000011
:0107E8000010
:0107E900000F
:0107EA00000E
:0107EB00000D
:0107EC00000C
:0107ED00000B
:0107EE00000A
:0107EF000009
:0107F0000008
:0107F1000007
:0107F2000006
:0107F3000005
:0107F4000004
:0107F5000003
:0107F6000002
:0107F7000001
:0107F8000000
:0107F90000FF
:0107FA0000FE
:0107FB0000FD
:0107FC0000FC
:0107FD0000FB
:0107FE0000FA
:0107FF0000F9
:0108000000F7
:0108010000F6
:0108020000F5
:0108030000F4
:0108040000F3
:0108050000F2
:0108060000F1
:0108070000F0
:0108080000EF
:0108090000EE
:01080A0000ED
:01080B0000EC
:01080C0000EB
:01080D0000EA
:01080E0000E9
:01080F0000E8
:0108100000E7
:0108110000E6
:0108120000E5
:0108130000E4
:0108140000E3
:0108150000E2
:0108160000E1
:0108170000E0
:0108180000DF
:0108190000DE
:01081A0000DD
:01081B0000DC
:01081C0000DB
:01081D0000DA
:01081E0000D9
:01081F0000D8
:0108200000D7
:0108210000D6
:0108220000D5
:0108230000D4
:0108240000D3
:0108250000D2
:0108260000D1
:0108270000D0
:0108280000CF
:0108290001CD
:01082A0001CC
:01082B0001CB
:01082C0000CB
:01082D0000CA
:01082E0000C9
:01082F0000C8
:0108300000C7
:0108310000C6
:0108320000C5
:0108330000C4
:0108340000C3
:0108350000C2
:0108360000C1
:0108370000C0
:0108380000BF
:0108390001BD
:01083A0001BC
:01083B0001BB
:01083C0000BB
:01083D0000BA
:01083E0000B9
:01083F0000B8
:0108400000B7
:0108410000B6
:0108420000B5
:0108430000B4
:0108440000B3
:0108450000B2
:0108460000B1
:0108470001AF
:0108480001AE
:0108490001AD
:01084A0001AC
:01084B0001AB
:01084C0000AB
:01084D0000AA
:01084E0000A9
:01084F0000A8
:0108500000A7
:0108510000A6
:0108520000A5
:0108530000A4
:0108540000A3
:0108550000A2
:0108560000A1
:01085700019F
:01085800019E
:01085900019D
:01085A00019C
:01085B00019B
:01085C00009B
:01085D00009A
:01085E000099
:01085F000098
:010860000097
:010861000096
:010862000095
:010863000094
:010864000093
:010865000191
:010866000190
:01086700018F
:01086800018E
:01086900018D
:01086A00018C
:01086B00018B
:01086C00008B
:01086D00008A
:01086E000089
:01086F000088
:010870000087
:010871000086
:010872000085
:010873000084
:010874000083
:010875000181
:010876000180
:010877000080
:01087800007F
:01087900017D
:01087A00017C
:01087B00017B
:01087C00007B
:01087D00007A
:01087E000079
:01087F000078
:010880000077
:010881000076
:010882000075
:010883000173
:010884000172
:010885000171
:010886000170
:010887000070
:01088800006F
:01088900016D
:01088A00016C
:01088B00016B
:01088C00006B
:01088D00006A
:01088E000069
:01088F000068
:010890000067
:010891000066
:010892000065
:010893000163
:010894000162
:010895000062
:010896000061
:010897000060
:01089800005F
:01089900015D
:01089A00015C
:01089B00015B
:01089C00005B
:01089D00005A
:01089E000059
:01089F000058
:0108A0000057
:0108A1000056
:0108A2000055
:0108A3000153
:0108A4000152
:0108A5000052
:0108A6000051
:0108A7000050
:0108A800004F
:0108A900014D
:0108AA00014C
:0108AB00014B
:0108AC00004B
:0108AD00004A
:0108AE000049
:0108AF000048
:0108B0000047
:0108B1000046
:0108B2000144
:0108B3000143
:0108B4000043
:0108B5000042
:0108B6000041
:0108B7000040
:0108B800003F
:0108B900013D
:0108BA00013C
:0108BB00013B
:0108BC00003B
:0108BD00003A
:0108BE000039
:0108BF000038
:0108C0000037
:0108C1000036
:0108C2000134
:0108C3000133
:0108C4000033
:0108C5000032
:0108C6000031
:0108C7000030
:0108C800002F
:0108C900012D
:0108CA00012C
:0108CB00012B
:0108CC00002B
:0108CD00002A
:0108CE000029
:0108CF000028
:0108D0000027
:0108D1000026
:0108D2000124
:0108D3000123
:0108D4000023
:0108D5000022
:0108D6000021
:0108D7000020
:0108D800001F
:0108D900011D
:0108DA00011C
:0108DB00011B
:0108DC00001B
:0108DD00001A
:0108DE000019
:0108DF000018
:0108E0000017
:0108E1000016
:0108E2000114
:0108E3000113
:0108E4000013
:0108E5000012
:0108E6000011
:0108E7000010
:0108E800000F
:0108E900010D
:0108EA00010C
:0108EB00010B
:0108EC00000B
:0108ED00000A
:0108EE000009
:0108EF000008
:0108F0000007
:0108F1000006
:0108F2000104
:0108F3000103
:0108F4000003
:0108F5000002
:0108F6000001
:0108F7000000
:0108F80000FF
:0108F90001FD
:0108FA0001FC
:0108FB0001FB
:0108FC0000FB
:0108FD0000FA
:0108FE0000F9
:0108FF0000F8
:0109000000F6
:0109010000F5
:0109020001F3
:0109030001F2
:0109040001F1
:0109050001F0
:0109060001EF
:0109070001EE
:0109080001ED
:0109090001EC
:01090A0001EB
:01090B0001EA
:01090C0001E9
:01090D0001E8
:01090E0000E8
:01090F0000E7
:0109100000E6
:0109110000E5
:0109120001E3
:0109130001E2
:0109140001E1
:0109150001E0
:0109160001DF
:0109170001DE
:0109180001DD
:0109190001DC
:01091A0001DB
:01091B0001DA
:01091C0001D9
:01091D0001D8
:01091E0000D8
:01091F0000D7
:0109200000D6
:0109210000D5
:0109220001D3
:0109230001D2
:0109240001D1
:0109250001D0
:0109260001CF
:0109270001CE
:0109280001CD
:0109290001CC
:01092A0001CB
:01092B0001CA
:01092C0001C9
:01092D0001C8
:01092E0000C8
:01092F0000C7
:0109300000C6
:0109310000C5
:0109320000C4
:0109330000C3
:0109340000C2
:0109350000C1
:0109360000C0
:0109370000BF
:0109380000BE
:0109390001BC
:01093A0001BB
:01093B0001BA
:01093C0000BA
:01093D0000B9
:01093E0000B8
:01093F0000B7
:0109400000B6
:0109410000B5
:0109420000B4
:0109430000B3
:0109440000B2
:0109450000B1
:0109460000B0
:0109470000AF
:0109480000AE
:0109490001AC
:01094A0001AB
:01094B0001AA
:01094C0000AA
:01094D0000A9
:01094E0000A8
:01094F0000A7
:0109500000A6
:0109510000A5
:0109520000A4
:0109530000A3
:0109540000A2
:0109550000A1
:0109560000A0
:01095700009F
:01095800009E
:01095900019C
:01095A00019B
:01095B00019A
:01095C00009A
:01095D000099
:01095E000098
:01095F000097
:010960000096
:010961000095
:010962000094
:010963000093
:010964000092
:010965000091
:010966000090
:01096700008F
:01096800008E
:01096900018C
:01096A00018B
:01096B00018A
:01096C00008A
:01096D000089
:01096E000088
:01096F000087
:010970000086
:010971000085
:010972000084
:010973000083
:010974000082
:010975000081
:010976000080
:01097700007F
:01097800007E
:01097900017C
:01097A00017B
:01097B00017A
:01097C00007A
:01097D000079
:01097E000078
:01097F000077
:010980000076
:010981000075
:010982000074
:010983000073
:010984000072
:010985000071
:010986000070
:01098700006F
:01098800006E
:01098900016C
:01098A00016B
:01098B00016A
:01098C00006A
:01098D000069
:01098E000068
:01098F000067
:010990000066
:010991000065
:010992000064
:010993000063
:010994000062
:010995000061
:010996000060
:01099700005F
:01099800005E
:01099900015C
:01099A00015B
:01099B00015A
:01099C00005A
:01099D000059
:01099E000058
:01099F000057
:0109A0000056
:0109A1000055
:0109A2000054
:0109A3000053
:0109A4000052
:0109A5000051
:0109A6000050
:0109A700004F
:0109A800004E
:0109A900014C
:0109AA00014B
:0109AB00014A
:0109AC00004A
:0109AD000049
:0109AE000048
:0109AF000047
:0109B0000046
:0109B1000045
:0109B2000044
:0109B3000043
:0109B4000042
:0109B5000041
:0109B6000040
:0109B700003F
:0109B800003E
:0109B900013C
:0109BA00013B
:0109BB00013A
:0109BC00003A
:0109BD000039
:0109BE000038
:0109BF000037
:0109C0000036
:0109C1000035
:0109C2000034
:0109C3000033
:0109C4000032
:0109C5000031
:0109C6000030
:0109C700002F
:0109C800002E
:0109C900012C
:0109CA00012B
:0109CB00012A
:0109CC00002A
:0109CD000029
:0109CE000028
:0109CF000027
:0109D0000026
:0109D1000025
:0109D2000024
:0109D3000023
:0109D4000022
:0109D5000021
:0109D6000020
:0109D700001F
:0109D800001E
:0109D900011C
:0109DA00011B
:0109DB00011A
:0109DC00001A
:0109DD000019
:0109DE000018
:0109DF000017
:0109E0000016
:0109E1000015
:0109E2000014
:0109E3000013
:0109E4000012
:0109E5000011
:0109E6000010
:0109E700000F
:0109E800000E
:0109E900000D
:0109EA00000C
:0109EB00000B
:0109EC00000A
:0109ED000009
:0109EE000008
:0109EF000007
:0109F0000006
:0109F1000005
:0109F2000004
:0109F3000003
:0109F4000002
:0109F5000001
:0109F6000000
:0109F70000FF
:0109F80000FE
:0109F90000FD
:0109FA0000FC
:0109FB0000FB
:0109FC0000FA
:0109FD0000F9
:0109FE0000F8
:0109FF0000F7
:010A000000F5
:010A010000F4
:010A020000F3
:010A030000F2
:010A040000F1
:010A050000F0
:010A060000EF
:010A070000EE
:010A080000ED
:010A090000EC
:010A0A0000EB
:010A0B0000EA
:010A0C0000E9
:010A0D0000E8
:010A0E0000E7
:010A0F0000E6
:010A100000E5
:010A110000E4
:010A120000E3
:010A130000E2
:010A140000E1
:010A150000E0
:010A160000DF
:010A170000DE
:010A180000DD
:010A190000DC
:010A1A0000DB
:010A1B0000DA
:010A1C0000D9
:010A1D0000D8
:010A1E0000D7
:010A1F0000D6
:010A200000D5
:010A210000D4
:010A220001D2
:010A230001D1
:010A240001D0
:010A250001CF
:010A260001CE
:010A270001CD
:010A280001CC
:010A290001CB
:010A2A0001CA
:010A2B0001C9
:010A2C0001C8
:010A2D0001C7
:010A2E0000C7
:010A2F0000C6
:010A300000C5
:010A310000C4
:010A320001C2
:010A330001C1
:010A340001C0
:010A350001BF
:010A360001BE
:010A370001BD
:010A380001BC
:010A390001BB
:010A3A0001BA
:010A3B0001B9
:010A3C0001B8
:010A3D0001B7
:010A3E0000B7
:010A3F0000B6
:010A400000B5
:010A410000B4
:010A420001B2
:010A430001B1
:010A440001B0
:010A450001AF
:010A460001AE
:010A470001AD
:010A480001AC
:010A490001AB
:010A4A0001AA
:010A4B0001A9
:010A4C0001A8
:010A4D0001A7
:010A4E0000A7
:010A4F0000A6
:010A500000A5
:010A510000A4
:010A520001A2
:010A530001A1
:010A540001A0
:010A550000A0
:010A5600009F
:010A5700009E
:010A5800009D
:010A5900009C
:010A5A00009B
:010A5B00009A
:010A5C000099
:010A5D000098
:010A5E000097
:010A5F000096
:010A60000095
:010A61000094
:010A62000192
:010A63000191
:010A64000190
:010A65000090
:010A6600008F
:010A6700008E
:010A6800008D
:010A6900008C
:010A6A00008B
:010A6B00008A
:010A6C000089
:010A6D000088
:010A6E000087
:010A6F000086
:010A70000085
:010A71000084
:010A72000182
:010A73000181
:010A74000180
:010A75000080
:010A7600007F
:010A7700007E
:010A7800007D
:010A7900007C
:010A7A00007B
:010A7B00007A
:010A7C000079
:010A7D000078
:010A7E000077
:010A7F000076
:010A80000075
:010A81000074
:010A82000172
:010A83000171
:010A84000170
:010A85000070
:010A8600006F
:010A8700006E
:010A8800006D
:010A8900006C
:010A8A00006B
:010A8B00006A
:010A8C000069
:010A8D000068
:010A8E000067
:010A8F000066
:010A90000065
:010A91000064
:010A92000162
:010A93000161
:010A94000160
:010A95000060
:010A9600005F
:010A9700005E
:010A9800005D
:010A9900005C
:010A9A00005B
:010A9B00005A
:010A9C000059
:010A9D000058
:010A9E000057
:010A9F000056
:010AA0000055
:010AA1000054
:010AA2000152
:010AA3000151
:010AA4000150
:010AA5000050
:010AA600004F
:010AA700004E
:010AA800004D
:010AA900004C
:010AAA00004B
:010AAB00004A
:010AAC000049
:010AAD000048
:010AAE000047
:010AAF000046
:010AB0000045
:010AB1000044
:010AB2000142
:010AB3000141
:010AB4000140
:010AB5000040
:010AB600003F
:010AB700003E
:010AB800003D
:010AB900003C
:010ABA00003B
:010ABB00003A
:010ABC000039
:010ABD000038
:010ABE000037
:010ABF000036
:010AC0000035
:010AC1000034
:010AC2000132
:010AC3000131
:010AC4000130
:010AC5000030
:010AC600002F
:010AC700002E
:010AC800002D
:010AC900002C
:010ACA00002B
:010ACB00002A
:010ACC000029
:010ACD000028
:010ACE000027
:010ACF000026
:010AD0000025
:010AD1000024
:010AD2000122
:010AD3000121
:010AD4000120
:010AD500011F
:010AD600011E
:010AD700011D
:010AD800011C
:010AD900011B
:010ADA00011A
:010ADB00001A
:010ADC000019
:010ADD000018
:010ADE000017
:010ADF000016
:010AE0000015
:010AE1000014
:010AE2000112
:010AE3000111
:010AE4000110
:010AE500010F
:010AE600010E
:010AE700010D
:010AE800010C
:010AE900010B
:010AEA00010A
:010AEB000109
:010AEC000108
:010AED000008
:010AEE000007
:010AEF000006
:010AF0000005
:010AF1000004
:010AF2000102
:010AF3000101
:010AF4000100
:010AF50001FF
:010AF60001FE
:010AF70001FD
:010AF80001FC
:010AF90001FB
:010AFA0001FA
:010AFB0001F9
:010AFC0001F8
:010AFD0001F7
:010AFE0000F7
:010AFF0000F6
:010B000000F4
:010B010000F3
:010B020000F2
:010B030000F1
:010B040000F0
:010B050000EF
:010B060000EE
:010B070000ED
:010B080000EC
:010B090000EB
:010B0A0001E9
:010B0B0001E8
:010B0C0001E7
:010B0D0001E6
:010B0E0000E6
:010B0F0000E5
:010B100000E4
:010B110000E3
:010B120000E2
:010B130000E1
:010B140000E0
:010B150000DF
:010B160000DE
:010B170000DD
:010B180000DC
:010B190000DB
:010B1A0000DA
:010B1B0001D8
:010B1C0001D7
:010B1D0001D6
:010B1E0000D6
:010B1F0000D5
:010B200000D4
:010B210000D3
:010B220000D2
:010B230000D1
:010B240000D0
:010B250000CF
:010B260000CE
:010B270000CD
:010B280000CC
:010B290000CB
:010B2A0000CA
:010B2B0001C8
:010B2C0001C7
:010B2D0001C6
:010B2E0000C6
:010B2F0000C5
:010B300000C4
:010B310000C3
:010B320000C2
:010B330000C1
:010B340000C0
:010B350000BF
:010B360000BE
:010B370000BD
:010B380000BC
:010B390000BB
:010B3A0000BA
:010B3B0001B8
:010B3C0001B7
:010B3D0001B6
:010B3E0000B6
:010B3F0000B5
:010B400000B4
:010B410000B3
:010B420000B2
:010B430000B1
:010B440000B0
:010B450000AF
:010B460000AE
:010B470000AD
:010B480000AC
:010B490000AB
:010B4A0000AA
:010B4B0001A8
:010B4C0001A7
:010B4D0001A6
:010B4E0000A6
:010B4F0000A5
:010B500000A4
:010B510000A3
:010B520000A2
:010B530000A1
:010B540000A0
:010B5500009F
:010B5600009E
:010B5700009D
:010B5800009C
:010B5900009B
:010B5A00009A
:010B5B000198
:010B5C000197
:010B5D000196
:010B5E000096
:010B5F000095
:010B60000094
:010B61000093
:010B62000092
:010B63000091
:010B64000090
:010B6500008F
:010B6600008E
:010B6700008D
:010B6800008C
:010B6900008B
:010B6A00008A
:010B6B000188
:010B6C000187
:010B6D000186
:010B6E000086
:010B6F000085
:010B70000084
:010B71000083
:010B72000181
:010B73000180
:010B7400017F
:010B7500007F
:010B7600007E
:010B7700007D
:010B7800007C
:010B7900007B
:010B7A00007A
:010B7B000178
:010B7C000177
:010B7D000176
:010B7E000076
:010B7F000075
:010B80000074
:010B81000073
:010B82000171
:010B83000170
:010B8400016F
:010B8500006F
:010B8600006E
:010B8700006D
:010B8800006C
:010B8900006B
:010B8A00006A
:010B8B000168
:010B8C000167
:010B8D000166
:010B8E000066
:010B8F000065
:010B90000064
:010B91000063
:010B92000161
:010B93000160
:010B9400015F
:010B9500005F
:010B9600005E
:010B9700005D
:010B9800005C
:010B9900005B
:010B9A00005A
:010B9B000158
:010B9C000157
:010B9D000156
:010B9E000056
:010B9F000055
:010BA0000054
:010BA1000053
:010BA2000151
:010BA3000150
:010BA400014F
:010BA500004F
:010BA600004E
:010BA700004D
:010BA800004C
:010BA900004B
:010BAA00004A
:010BAB000148
:010BAC000147
:010BAD000146
:010BAE000046
:010BAF000045
:010BB0000044
:010BB1000043
:010BB2000141
:010BB3000140
:010BB400013F
:010BB500013E
:010BB600013D
:010BB700013C
:010BB800013B
:010BB900013A
:010BBA000139
:010BBB000138
:010BBC000137
:010BBD000136
:010BBE000036
:010BBF000035
:010BC0000034
:010BC1000033
:010BC2000032
:010BC3000130
:010BC400012F
:010BC500012E
:010BC600012D
:010BC700012C
:010BC800012B
:010BC900012A
:010BCA000129
:010BCB000128
:010BCC000127
:010BCD000027
:010BCE000026
:010BCF000025
:010BD0000024
:010BD1000023
:010BD2000022
:010BD3000021
:010BD4000020
:010BD500011E
:010BD600011D
:010BD700011C
:010BD800011B
:010BD900011A
:010BDA000119
:010BDB000019
:010BDC000018
:010BDD000017
:010BDE000016
:010BDF000015
:010BE0000014
:010BE1000013
:010BE2000012
:010BE3000011
:010BE4000010
:010BE500000F
:010BE600000E
:010BE700000D
:010BE800000C
:010BE900000B
:010BEA00000A
:010BEB000009
:010BEC000008
:010BED000007
:010BEE000006
:010BEF000005
:010BF0000004
:010BF1000003
:010BF2000002
:010BF3000001
:010BF4000000
:010BF50000FF
:010BF60000FE
:010BF70000FD
:010BF80000FC
:010BF90000FB
:010BFA0000FA
:010BFB0000F9
:010BFC0000F8
:010BFD0000F7
:010BFE0000F6
:010BFF0000F5
:010C000000F3
:010C010000F2
:010C020000F1
:010C030000F0
:010C040000EF
:010C050000EE
:010C060000ED
:010C070000EC
:010C080000EB
:010C090000EA
:010C0A0000E9
:010C0B0000E8
:010C0C0000E7
:010C0D0000E6
:010C0E0000E5
:010C0F0000E4
:010C100000E3
:010C110000E2
:010C120000E1
:010C130000E0
:010C140000DF
:010C150000DE
:010C160000DD
:010C170000DC
:010C180000DB
:010C190000DA
:010C1A0000D9
:010C1B0000D8
:010C1C0000D7
:010C1D0000D6
:010C1E0000D5
:010C1F0000D4
:010C200000D3
:010C210000D2
:010C220000D1
:010C230001CF
:010C240001CE
:010C250001CD
:010C260001CC
:010C270001CB
:010C280001CA
:010C290001C9
:010C2A0001C8
:010C2B0001C7
:010C2C0001C6
:010C2D0000C6
:010C2E0000C5
:010C2F0000C4
:010C300000C3
:010C310000C2
:010C320001C0
:010C330001BF
:010C340001BE
:010C350001BD
:010C360001BC
:010C370001BB
:010C380001BA
:010C390001B9
:010C3A0001B8
:010C3B0001B7
:010C3C0001B6
:010C3D0001B5
:010C3E0000B5
:010C3F0000B4
:010C400000B3
:010C410000B2
:010C420001B0
:010C430001AF
:010C440001AE
:010C450001AD
:010C460001AC
:010C470001AB
:010C480001AA
:010C490001A9
:010C4A0001A8
:010C4B0001A7
:010C4C0001A6
:010C4D0001A5
:010C4E0000A5
:010C4F0000A4
:010C500000A3
:010C510000A2
:010C520001A0
:010C5300019F
:010C5400019E
:010C5500019D
:010C5600009D
:010C5700009C
:010C5800009B
:010C5900009A
:010C5A000198
:010C5B000197
:010C5C000196
:010C5D000195
:010C5E000095
:010C5F000094
:010C60000093
:010C61000092
:010C62000190
:010C6300018F
:010C6400018E
:010C6500008E
:010C6600008D
:010C6700008C
:010C6800008B
:010C6900008A
:010C6A000089
:010C6B000187
:010C6C000186
:010C6D000185
:010C6E000085
:010C6F000084
:010C70000083
:010C71000082
:010C72000180
:010C7300017F
:010C7400017E
:010C7500007E
:010C7600007D
:010C7700007C
:010C7800007B
:010C7900007A
:010C7A000079
:010C7B000177
:010C7C000176
:010C7D000175
:010C7E000075
:010C7F000074
:010C80000073
:010C81000072
:010C82000170
:010C8300016F
:010C8400016E
:010C8500006E
:010C8600006D
:010C8700006C
:010C8800006B
:010C8900006A
:010C8A000069
:010C8B000068
:010C8C000067
:010C8D000066
:010C8E000065
:010C8F000064
:010C90000063
:010C91000062
:010C92000160
:010C9300015F
:010C9400015E
:010C9500005E
:010C9600005D
:010C9700005C
:010C9800005B
:010C9900005A
:010C9A000059
:010C9B000058
:010C9C000057
:010C9D000056
:010C9E000055
:010C9F000054
:010CA0000053
:010CA1000052
:010CA2000150
:010CA300014F
:010CA400014E
:010CA500004E
:010CA600004D
:010CA700004C
:010CA800004B
:010CA900004A
:010CAA000049
:010CAB000048
:010CAC000047
:010CAD000046
:010CAE000045
:010CAF000044
:010CB0000043
:010CB1000042
:010CB2000140
:010CB300013F
:010CB400013E
:010CB500003E
:010CB600003D
:010CB700003C
:010CB800003B
:010CB900003A
:010CBA000039
:010CBB000038
:010CBC000037
:010CBD000036
:010CBE000035
:010CBF000034
:010CC0000033
:010CC1000032
:010CC2000130
:010CC300012F
:010CC400012E
:010CC500002E
:010CC600002D
:010CC700002C
:010CC800002B
:010CC900002A
:010CCA000029
:010CCB000028
:010CCC000027
:010CCD000026
:010CCE000025
:010CCF000024
:010CD0000023
:010CD1000022
:010CD2000120
:010CD300011F
:010CD400011E
:010CD500011D
:010CD600011C
:010CD700011B
:010CD800011A
:010CD9000119
:010CDA000118
:010CDB000018
:010CDC000017
:010CDD000016
:010CDE000015
:010CDF000014
:010CE0000013
:010CE1000012
:010CE2000110
:010CE300010F
:010CE400010E
:010CE500010D
:010CE600010C
:010CE700010B
:010CE800010A
:010CE9000109
:010CEA000108
:010CEB000107
:010CEC000106
:010CED000006
:010CEE000005
:010CEF000004
:010CF0000003
:010CF1000002
:010CF2000100
:010CF30001FF
:010CF40001FE
:010CF50001FD
:010CF60001FC
:010CF70001FB
:010CF80001FA
:010CF90001F9
:010CFA0001F8
:010CFB0001F7
:010CFC0001F6
:010CFD0001F5
:010CFE0000F5
:010CFF0000F4
:010D000000F2
:010D010000F1
:010D020001EF
:010D030001EE
:010D040001ED
:010D050000ED
:010D060000EC
:010D070000EB
:010D080000EA
:010D090000E9
:010D0A0001E7
:010D0B0001E6
:010D0C0001E5
:010D0D0001E4
:010D0E0000E4
:010D0F0000E3
:010D100000E2
:010D110000E1
:010D120001DF
:010D130001DE
:010D140001DD
:010D150000DD
:010D160000DC
:010D170000DB
:010D180000DA
:010D190000D9
:010D1A0000D8
:010D1B0001D6
:010D1C0001D5
:010D1D0001D4
:010D1E0000D4
:010D1F0000D3
:010D200000D2
:010D210000D1
:010D220001CF
:010D230001CE
:010D240001CD
:010D250000CD
:010D260000CC
:010D270000CB
:010D280000CA
:010D290000C9
:010D2A0000C8
:010D2B0001C6
:010D2C0001C5
:010D2D0001C4
:010D2E0000C4
:010D2F0000C3
:010D300000C2
:010D310000C1
:010D320001BF
:010D330001BE
:010D340001BD
:010D350000BD
:010D360000BC
:010D370000BB
:010D380000BA
:010D390000B9
:010D3A0000B8
:010D3B0001B6
:010D3C0001B5
:010D3D0001B4
:010D3E0000B4
:010D3F0000B3
:010D400000B2
:010D410000B1
:010D420001AF
:010D430001AE
:010D440001AD
:010D450000AD
:010D460000AC
:010D470000AB
:010D480000AA
:010D490000A9
:010D4A0000A8
:010D4B0001A6
:010D4C0001A5
:010D4D0001A4
:010D4E0000A4
:010D4F0000A3
:010D500000A2
:010D510000A1
:010D5200019F
:010D5300019E
:010D5400019D
:010D5500009D
:010D5600009C
:010D5700009B
:010D5800009A
:010D59000099
:010D5A000098
:010D5B000196
:010D5C000195
:010D5D000194
:010D5E000094
:010D5F000093
:010D60000092
:010D61000091
:010D6200018F
:010D6300018E
:010D6400018D
:010D6500008D
:010D6600008C
:010D6700008B
:010D6800008A
:010D69000089
:010D6A000088
:010D6B000186
:010D6C000185
:010D6D000184
:010D6E000084
:010D6F000083
:010D70000082
:010D71000081
:010D7200017F
:010D7300017E
:010D7400017D
:010D7500007D
:010D7600007C
:010D7700007B
:010D7800007A
:010D79000079
:010D7A000078
:010D7B000176
:010D7C000175
:010D7D000174
:010D7E000074
:010D7F000073
:010D80000072
:010D81000071
:010D8200016F
:010D8300016E
:010D8400016D
:010D8500006D
:010D8600006C
:010D8700006B
:010D8800006A
:010D89000069
:010D8A000068
:010D8B000166
:010D8C000165
:010D8D000164
:010D8E000064
:010D8F000063
:010D90000062
:010D91000061
:010D9200015F
:010D9300015E
:010D9400015D
:010D9500005D
:010D9600005C
:010D9700005B
:010D9800005A
:010D99000059
:010D9A000058
:010D9B000156
:010D9C000155
:010D9D000154
:010D9E000054
:010D9F000053
:010DA0000052
:010DA1000051
:010DA200014F
:010DA300014E
:010DA400014D
:010DA500014C
:010DA600004C
:010DA700004B
:010DA800004A
:010DA9000049
:010DAA000048
:010DAB000146
:010DAC000145
:010DAD000144
:010DAE000044
:010DAF000043
:010DB0000042
:010DB1000041
:010DB2000040
:010DB300013E
:010DB400013D
:010DB500013C
:010DB600013B
:010DB700013A
:010DB8000139
:010DB9000138
:010DBA000137
:010DBB000136
:010DBC000135
:010DBD000134
:010DBE000034
:010DBF000033
:010DC0000032
:010DC1000031
:010DC2000030
:010DC300012E
:010DC400012D
:010DC500012C
:010DC600012B
:010DC700012A
:010DC8000129
:010DC9000128
:010DCA000127
:010DCB000126
:010DCC000125
:010DCD000025
:010DCE000024
:010DCF000023
:010DD0000022
:010DD1000021
:010DD2000020
:010DD300001F
:010DD400001E
:010DD500011C
:010DD600011B
:010DD700011A
:010DD8000119
:010DD9000118
:010DDA000117
:010DDB000017
:010DDC000016
:010DDD000015
:010DDE000014
:010DDF000013
:010DE0000012
:010DE1000011
:010DE2000010
:010DE300000F
:010DE400000E
:010DE500000D
:010DE600000C
:010DE700000B
:010DE800000A
:010DE9000009
:010DEA000008
:010DEB000007
:010DEC000006
:010DED000005
:010DEE000004
:010DEF000003
:010DF0000002
:010DF1000001
:010DF2000000
:010DF30000FF
:010DF40000FE
:010DF50000FD
:010DF60000FC
:010DF70000FB
:010DF80000FA
:010DF90000F9
:010DFA0000F8
:010DFB0000F7
:010DFC0000F6
:010DFD0000F5
:010DFE0000F4
:010DFF0000F3
:010E000000F1
:010E010000F0
:010E020000EF
:010E030000EE
:010E040000ED
:010E050000EC
:010E060000EB
:010E070000EA
:010E080000E9
:010E090000E8
:010E0A0000E7
:010E0B0000E6
:010E0C0000E5
:010E0D0000E4
:010E0E0000E3
:010E0F0000E2
:010E100000E1
:010E110000E0
:010E120000DF
:010E130000DE
:010E140000DD
:010E150000DC
:010E160000DB
:010E170000DA
:010E180000D9
:010E190000D8
:010E1A0000D7
:010E1B0000D6
:010E1C0000D5
:010E1D0000D4
:010E1E0000D3
:010E1F0000D2
:010E200000D1
:010E210000D0
:010E220001CE
:010E230001CD
:010E240001CC
:010E250001CB
:010E260001CA
:010E270001C9
:010E280001C8
:010E290001C7
:010E2A0001C6
:010E2B0001C5
:010E2C0001C4
:010E2D0001C3
:010E2E0000C3
:010E2F0000C2
:010E300000C1
:010E310000C0
:010E320001BE
:010E330001BD
:010E340001BC
:010E350001BB
:010E360001BA
:010E370001B9
:010E380001B8
:010E390001B7
:010E3A0001B6
:010E3B0001B5
:010E3C0001B4
:010E3D0001B3
:010E3E0000B3
:010E3F0000B2
:010E400000B1
:010E410000B0
:010E420001AE
:010E430001AD
:010E440001AC
:010E450001AB
:010E460001AA
:010E470001A9
:010E480001A8
:010E490001A7
:010E4A0001A6
:010E4B0001A5
:010E4C0001A4
:010E4D0001A3
:010E4E0000A3
:010E4F0000A2
:010E500000A1
:010E510000A0
:010E5200009F
:010E5300009E
:010E5400009D
:010E5500009C
:010E5600009B
:010E5700009A
:010E58000099
:010E59000098
:010E5A000097
:010E5B000195
:010E5C000194
:010E5D000193
:010E5E000093
:010E5F000092
:010E60000091
:010E61000090
:010E6200008F
:010E6300008E
:010E6400008D
:010E6500008C
:010E6600008B
:010E6700008A
:010E68000089
:010E69000088
:010E6A000186
:010E6B000185
:010E6C000184
:010E6D000183
:010E6E000083
:010E6F000082
:010E70000081
:010E71000080
:010E7200007F
:010E7300007E
:010E7400007D
:010E7500007C
:010E7600007B
:010E7700007A
:010E78000079
:010E79000078
:010E7A000176
:010E7B000175
:010E7C000174
:010E7D000074
:010E7E000073
:010E7F000072
:010E80000071
:010E81000070
:010E8200006F
:010E8300006E
:010E8400006D
:010E8500006C
:010E8600006B
:010E8700006A
:010E88000069
:010E89000068
:010E8A000166
:010E8B000165
:010E8C000164
:010E8D000064
:010E8E000063
:010E8F000062
:010E90000061
:010E91000060
:010E9200005F
:010E9300005E
:010E9400005D
:010E9500005C
:010E9600005B
:010E9700005A
:010E98000059
:010E99000058
:010E9A000156
:010E9B000155
:010E9C000154
:010E9D000054
:010E9E000053
:010E9F000052
:010EA0000051
:010EA1000050
:010EA200004F
:010EA300004E
:010EA400004D
:010EA500004C
:010EA600004B
:010EA700004A
:010EA8000049
:010EA9000147
:010EAA000146
:010EAB000145
:010EAC000045
:010EAD000044
:010EAE000043
:010EAF000042
:010EB0000041
:010EB1000040
:010EB200003F
:010EB300003E
:010EB400003D
:010EB500003C
:010EB600003B
:010EB700003A
:010EB8000039
:010EB9000137
:010EBA000136
:010EBB000135
:010EBC000035
:010EBD000034
:010EBE000033
:010EBF000032
:010EC0000031
:010EC1000030
:010EC200002F
:010EC300002E
:010EC400002D
:010EC500002C
:010EC600002B
:010EC700002A
:010EC8000029
:010EC9000127
:010ECA000126
:010ECB000125
:010ECC000025
:010ECD000024
:010ECE000023
:010ECF000022
:010ED0000021
:010ED1000020
:010ED200001F
:010ED300001E
:010ED400001D
:010ED500001C
:010ED600001B
:010ED700001A
:010ED8000019
:010ED9000117
:010EDA000116
:010EDB000115
:010EDC000015
:010EDD000014
:010EDE000013
:010EDF000012
:010EE0000011
:010EE1000010
:010EE200000F
:010EE300000E
:010EE400000D
:010EE500000C
:010EE600000B
:010EE700000A
:010EE8000108
:010EE9000107
:010EEA000106
:010EEB000006
:010EEC000005
:010EED000004
:010EEE000003
:010EEF000002
:010EF0000001
:010EF1000000
:010EF20000FF
:010EF30000FE
:010EF40000FD
:010EF50000FC
:010EF60000FB
:010EF70000FA
:010EF80001F8
:010EF90001F7
:010EFA0001F6
:010EFB0000F6
:010EFC0000F5
:010EFD0000F4
:010EFE0000F3
:010EFF0000F2
:010F000000F0
:010F010000EF
:010F020000EE
:010F030000ED
:010F040000EC
:010F050000EB
:010F060000EA
:010F070000E9
:010F080001E7
:010F090001E6
:010F0A0001E5
:010F0B0000E5
:010F0C0000E4
:010F0D0000E3
:010F0E0000E2
:010F0F0000E1
:010F100000E0
:010F110000DF
:010F120000DE
:010F130000DD
:010F140000DC
:010F150000DB
:010F160000DA
:010F170000D9
:010F180001D7
:010F190001D6
:010F1A0001D5
:010F1B0000D5
:010F1C0000D4
:010F1D0000D3
:010F1E0000D2
:010F1F0000D1
:010F200000D0
:010F210000CF
:010F220000CE
:010F230000CD
:010F240000CC
:010F250000CB
:010F260000CA
:010F270001C8
:010F280001C7
:010F290001C6
:010F2A0000C6
:010F2B0000C5
:010F2C0000C4
:010F2D0000C3
:010F2E0000C2
:010F2F0000C1
:010F300000C0
:010F310000BF
:010F320000BE
:010F330000BD
:010F340000BC
:010F350000BB
:010F360000BA
:010F370001B8
:010F380001B7
:010F390001B6
:010F3A0000B6
:010F3B0000B5
:010F3C0000B4
:010F3D0000B3
:010F3E0000B2
:010F3F0000B1
:010F400000B0
:010F410000AF
:010F420000AE
:010F430000AD
:010F440000AC
:010F450000AB
:010F460000AA
:010F470001A8
:010F480001A7
:010F490001A6
:010F4A0000A6
:010F4B0000A5
:010F4C0000A4
:010F4D0000A3
:010F4E0000A2
:010F4F0000A1
:010F500000A0
:010F5100009F
:010F5200009E
:010F5300009D
:010F5400009C
:010F5500009B
:010F5600009A
:010F57000198
:010F58000197
:010F59000196
:010F5A000096
:010F5B000095
:010F5C000094
:010F5D000093
:010F5E000092
:010F5F000091
:010F60000090
:010F6100008F
:010F6200008E
:010F6300008D
:010F6400008C
:010F6500008B
:010F66000189
:010F67000188
:010F68000187
:010F69000087
:010F6A000086
:010F6B000085
:010F6C000084
:010F6D000083
:010F6E000082
:010F6F000081
:010F70000080
:010F7100007F
:010F7200007E
:010F7300007D
:010F7400007C
:010F7500007B
:010F76000179
:010F77000178
:010F78000177
:010F79000077
:010F7A000076
:010F7B000075
:010F7C000074
:010F7D000073
:010F7E000072
:010F7F000071
:010F80000070
:010F8100006F
:010F8200006E
:010F8300006D
:010F8400006C
:010F8500006B
:010F86000169
:010F87000168
:010F88000167
:010F89000067
:010F8A000066
:010F8B000065
:010F8C000064
:010F8D000063
:010F8E000062
:010F8F000061
:010F90000060
:010F9100005F
:010F9200005E
:010F9300005D
:010F9400005C
:010F9500005B
:010F96000159
:010F97000158
:010F98000157
:010F99000057
:010F9A000056
:010F9B000055
:010F9C000054
:010F9D000053
:010F9E000052
:010F9F000051
:010FA0000050
:010FA100004F
:010FA200004E
:010FA300004D
:010FA400004C
:010FA500014A
:010FA6000149
:010FA7000148
:010FA8000048
:010FA9000047
:010FAA000046
:010FAB000045
:010FAC000044
:010FAD000043
:010FAE000042
:010FAF000041
:010FB0000040
:010FB100003F
:010FB200003E
:010FB300003D
:010FB400003C
:010FB500013A
:010FB6000139
:010FB7000138
:010FB8000038
:010FB9000037
:010FBA000036
:010FBB000035
:010FBC000034
:010FBD000033
:010FBE000032
:010FBF000031
:010FC0000030
:010FC100002F
:010FC200002E
:010FC300002D
:010FC400002C
:010FC500012A
:010FC6000129
:010FC7000128
:010FC8000028
:010FC9000027
:010FCA000026
:010FCB000025
:010FCC000024
:010FCD000023
:010FCE000022
:010FCF000021
:010FD0000020
:010FD100001F
:010FD200001E
:010FD300001D
:010FD400001C
:010FD500011A
:010FD6000119
:010FD7000118
:010FD8000018
:010FD9000017
:010FDA000016
:010FDB000015
:010FDC000014
:010FDD000013
:010FDE000012
:010FDF000011
:010FE0000010
:010FE100000F
:010FE200000E
:010FE300000D
:010FE400000C
:010FE500000B
:010FE600000A
:010FE7000009
:010FE8000008
:010FE9000007
:010FEA000006
:010FEB000005
:010FEC000004
:010FED000003
:010FEE000002
:010FEF000001
:010FF0000000
:010FF10000FF
:010FF20000FE
:010FF30000FD
:010FF40000FC
:010FF50000FB
:010FF60000FA
:010FF70000F9
:010FF80000F8
:010FF90000F7
:010FFA0000F6
:010FFB0000F5
:010FFC0000F4
:010FFD0000F3
:010FFE0000F2
:010FFF0000F1
:0110000000EF
:0110010000EE
:0110020000ED
:0110030000EC
:0110040000EB
:0110050000EA
:0110060000E9
:0110070000E8
:0110080000E7
:0110090000E6
:01100A0000E5
:01100B0000E4
:01100C0000E3
:01100D0000E2
:01100E0000E1
:01100F0000E0
:0110100000DF
:0110110000DE
:0110120000DD
:0110130000DC
:0110140000DB
:0110150000DA
:0110160000D9
:0110170000D8
:0110180000D7
:0110190000D6
:01101A0000D5
:01101B0000D4
:01101C0000D3
:01101D0000D2
:01101E0000D1
:01101F0000D0
:0110200000CF
:0110210000CE
:0110220000CD
:0110230001CB
:0110240001CA
:0110250001C9
:0110260001C8
:0110270001C7
:0110280001C6
:0110290001C5
:01102A0001C4
:01102B0001C3
:01102C0001C2
:01102D0000C2
:01102E0000C1
:01102F0000C0
:0110300000BF
:0110310000BE
:0110320001BC
:0110330001BB
:0110340001BA
:0110350001B9
:0110360001B8
:0110370001B7
:0110380001B6
:0110390001B5
:01103A0001B4
:01103B0001B3
:01103C0001B2
:01103D0001B1
:01103E0000B1
:01103F0000B0
:0110400000AF
:0110410000AE
:0110420001AC
:0110430001AB
:0110440001AA
:0110450001A9
:0110460000A9
:0110470000A8
:0110480000A7
:0110490000A6
:01104A0001A4
:01104B0001A3
:01104C0001A2
:01104D0001A1
:01104E0000A1
:01104F0000A0
:01105000009F
:01105100009E
:01105200019C
:01105300019B
:01105400019A
:01105500009A
:011056000099
:011057000098
:011058000097
:011059000096
:01105A000095
:01105B000193
:01105C000192
:01105D000191
:01105E000091
:01105F000090
:01106000008F
:01106100008E
:01106200018C
:01106300018B
:01106400018A
:01106500008A
:011066000089
:011067000088
:011068000087
:011069000086
:01106A000085
:01106B000183
:01106C000182
:01106D000181
:01106E000081
:01106F000080
:01107000007F
:01107100007E
:01107200017C
:01107300017B
:01107400017A
:01107500007A
:011076000079
:011077000078
:011078000077
:011079000076
:01107A000075
:01107B000173
:01107C000172
:01107D000171
:01107E000071
:01107F000070
:01108000006F
:01108100006E
:01108200016C
:01108300016B
:01108400016A
:01108500006A
:011086000069
:011087000068
:011088000067
:011089000066
:01108A000065
:01108B000163
:01108C000162
:01108D000161
:01108E000061
:01108F000060
:01109000005F
:01109100005E
:01109200015C
:01109300015B
:01109400015A
:01109500005A
:011096000059
:011097000058
:011098000057
:011099000056
:01109A000055
:01109B000153
:01109C000152
:01109D000151
:01109E000051
:01109F000050
:0110A000004F
:0110A100004E
:0110A200014C
:0110A300014B
:0110A400014A
:0110A500004A
:0110A6000049
:0110A7000048
:0110A8000047
:0110A9000046
:0110AA000045
:0110AB000143
:0110AC000142
:0110AD000141
:0110AE000041
:0110AF000040
:0110B000003F
:0110B100003E
:0110B200013C
:0110B300013B
:0110B400013A
:0110B500003A
:0110B6000039
:0110B7000038
:0110B8000037
:0110B9000036
:0110BA000035
:0110BB000133
:0110BC000132
:0110BD000131
:0110BE000031
:0110BF000030
:0110C000002F
:0110C100002E
:0110C200012C
:0110C300012B
:0110C400012A
:0110C500002A
:0110C6000029
:0110C7000028
:0110C8000027
:0110C9000026
:0110CA000025
:0110CB000123
:0110CC000122
:0110CD000121
:0110CE000021
:0110CF000020
:0110D000001F
:0110D100001E
:0110D200001D
:0110D300011B
:0110D400011A
:0110D5000119
:0110D6000118
:0110D7000117
:0110D8000116
:0110D9000115
:0110DA000114
:0110DB000113
:0110DC000112
:0110DD000012
:0110DE000011
:0110DF000010
:0110E000000F
:0110E100000E
:0110E200000D
:0110E300010B
:0110E400010A
:0110E5000109
:0110E6000108
:0110E7000107
:0110E8000106
:0110E9000105
:0110EA000104
:0110EB000103
:0110EC000102
:0110ED000002
:0110EE000001
:0110EF000000
:0110F00000FF
:0110F10000FE
:0110F20000FD
:0110F30001FB
:0110F40001FA
:0110F50001F9
:0110F60001F8
:0110F70001F7
:0110F80001F6
:0110F90001F5
:0110FA0001F4
:0110FB0001F3
:0110FC0001F2
:0110FD0000F2
:0110FE0000F1
:0110FF0000F0
:0111000000EE
:0111010000ED
:0111020001EB
:0111030001EA
:0111040001E9
:0111050000E9
:0111060000E8
:0111070000E7
:0111080000E6
:0111090000E5
:01110A0000E4
:01110B0001E2
:01110C0001E1
:01110D0001E0
:01110E0000E0
:01110F0000DF
:0111100000DE
:0111110000DD
:0111120001DB
:0111130001DA
:0111140001D9
:0111150000D9
:0111160000D8
:0111170000D7
:0111180000D6
:0111190000D5
:01111A0000D4
:01111B0001D2
:01111C0001D1
:01111D0001D0
:01111E0000D0
:01111F0000CF
:0111200000CE
:0111210000CD
:0111220001CB
:0111230001CA
:0111240001C9
:0111250000C9
:0111260000C8
:0111270000C7
:0111280000C6
:0111290000C5
:01112A0000C4
:01112B0001C2
:01112C0001C1
:01112D0001C0
:01112E0000C0
:01112F0000BF
:0111300000BE
:0111310000BD
:0111320001BB
:0111330001BA
:0111340001B9
:0111350000B9
:0111360000B8
:0111370000B7
:0111380000B6
:0111390000B5
:01113A0000B4
:01113B0001B2
:01113C0001B1
:01113D0001B0
:01113E0000B0
:01113F0000AF
:0111400000AE
:0111410000AD
:0111420001AB
:0111430001AA
:0111440001A9
:0111450000A9
:0111460000A8
:0111470000A7
:0111480000A6
:0111490000A5
:01114A0000A4
:01114B0001A2
:01114C0001A1
:01114D0001A0
:01114E0000A0
:01114F00009F
:01115000009E
:01115100009D
:01115200019B
:01115300019A
:011154000199
:011155000099
:011156000098
:011157000097
:011158000096
:011159000095
:01115A000094
:01115B000192
:01115C000191
:01115D000190
:01115E000090
:01115F00008F
:01116000008E
:01116100008D
:01116200018B
:01116300018A
:011164000189
:011165000089
:011166000088
:011167000087
:011168000086
:011169000085
:01116A000084
:01116B000182
:01116C000181
:01116D000180
:01116E000080
:01116F00007F
:01117000007E
:01117100007D
:01117200017B
:01117300017A
:011174000179
:011175000079
:011176000078
:011177000077
:011178000076
:011179000075
:01117A000074
:01117B000172
:01117C000171
:01117D000170
:01117E000070
:01117F00006F
:01118000006E
:01118100006D
:01118200016B
:01118300016A
:011184000169
:011185000069
:011186000068
:011187000067
:011188000066
:011189000065
:01118A000064
:01118B000162
:01118C000161
:01118D000160
:01118E000060
:01118F00005F
:01119000005E
:01119100005D
:01119200015B
:01119300015A
:011194000159
:011195000059
:011196000058
:011197000057
:011198000056
:011199000055
:01119A000054
:01119B000152
:01119C000151
:01119D000150
:01119E000050
:01119F00004F
:0111A000004E
:0111A100004D
:0111A200014B
:0111A300014A
:0111A4000149
:0111A5000148
:0111A6000048
:0111A7000047
:0111A8000046
:0111A9000045
:0111AA000143
:0111AB000142
:0111AC000141
:0111AD000140
:0111AE000040
:0111AF00003F
:0111B000003E
:0111B100003D
:0111B200013B
:0111B300013A
:0111B4000139
:0111B5000138
:0111B6000137
:0111B7000136
:0111B8000135
:0111B9000134
:0111BA000133
:0111BB000132
:0111BC000131
:0111BD000130
:0111BE000030
:0111BF00002F
:0111C000002E
:0111C100002D
:0111C200012B
:0111C300012A
:0111C4000129
:0111C5000128
:0111C6000127
:0111C7000126
:0111C8000125
:0111C9000124
:0111CA000123
:0111CB000122
:0111CC000121
:0111CD000120
:0111CE000020
:0111CF00001F
:0111D000001E
:0111D100001D
:0111D200001C
:0111D300011A
:0111D4000119
:0111D5000118
:0111D6000117
:0111D7000116
:0111D8000115
:0111D9000114
:0111DA000113
